:020000040800F2
:100000003804002001010008C51A0008C71A0008BA
:10001000CB1A0008CF1A0008D31A0008000000000D
:10002000000000000000000000000000D71A0008D7
:10003000D91A000800000000DB1A0008DD1A0008C9
:100040001B0100081B0100081B0100081B01000820
:100050001B0100081B0100081B0100086F1B0008A2
:100060001B010008DF1A00081B0100081B01000823
:100070001B0100081B0100081B0100081B010008F0
:100080001B0100081B0100081B0100081B010008E0
:100090001B0100081B0100081B0100081B010008D0
:1000A0001B0100081B0100081B0100081B010008C0
:1000B0001B0100081B0100081B0100081B010008B0
:1000C0001B0100081B0100081B0100081B010008A0
:1000D0001B0100081B0100081B0100081B01000890
:1000E0001B0100081B0100081B010008DFF80CD0F1
:1000F00002F050FB004800477D190008380400203A
:100100000648804706480047FEE7FEE7FEE7FEE7B1
:10011000FEE7FEE7FEE7FEE7FEE7FEE70302000874
:10012000ED0000080CB50020019000906C480068BC
:1001300040F480306A49086000BF6948006800F4F4
:10014000003000900198401C0190009818B9019867
:10015000B0F5A06FF1D16248006800F4003010B132
:100160000120009001E0002000900098012843D178
:100170005C48006840F010005A4908600846006872
:1001800020F0030008600846006840F002000860A4
:1001900053484068524948600846406848600846ED
:1001A000406840F4806048600846406820F47C1055
:1001B00048600846406840F4E81048600846006817
:1001C00040F08070086000BF4548006800F0007093
:1001D0000028F9D04248406820F0030040494860B8
:1001E0000846406840F00200486000BF3C48406854
:1001F00000F00C000828F9D10CBD10B5FFF792FFF4
:1002000010BD10B53648006840F001003449086060
:10021000084640683449084031494860084600684B
:10022000324908402E4908600846006820F48020C2
:1002300008600846406820F4FE0048604FF41F0044
:100240008860FFF7DAFF4FF000602949086010BDB1
:1002500010B5002100200022214B5B6803F00C0147
:1002600021B1042906D0082928D107E0214B224CCE
:10027000236027E01F4B204C236023E0184B5B6872
:1002800003F47010164B5B6803F48032022303EB17
:10029000904022B9194B4343174C23600DE0104B9B
:1002A0005B6803F4003323B1144B4343124C2360C7
:1002B00003E0104B4343104C236003E00D4B0E4C06
:1002C000236000BF00BF064B5B68C3F303130C4CF5
:1002D000E15C094B1B68CB40074C236010BD00005C
:1002E00000100240002002400000FFF8FFFFF6FE71
:1002F00008ED00E000127A000000002000093D0037
:100300000400002031490143314A1160704770B543
:10031000002100230F22C47804B32D4C246804F478
:10032000E064C4F5E064210AC1F10403CA404478E2
:1003300004FA03F18478144021430901254C06781E
:10034000A155047804F01F050124AC4005786D1117
:10035000AD0005F1E025C5F8004109E0047804F09E
:100360001F050124AC401C4D0678761145F8264047
:1003700070BD1A4A0A400243154B1B1F1A60704792
:1003800039B1134A121D12680243114B1B1D1A602A
:1003900006E00F4A121D126882430D4B1B1D1A60A6
:1003A0007047042808D14FF0E021096941F00401A9
:1003B0004FF0E022116107E04FF0E021096921F0E0
:1003C00004014FF0E0221161704700000000FA05BF
:1003D0000CED00E000E400E080E100E080FFFF1FA2
:1003E00010B50446CC48844208D10121042000F015
:1003F0002DFB0021042000F029FB46E0C748844281
:1004000008D10121082000F021FB0021082000F084
:100410001DFB3AE0C248844208D10121102000F0BF
:1004200015FB0021102000F011FB2EE0BD48844296
:1004300008D10121202000F009FB0021202000F03C
:1004400005FB22E0B848844208D10121402000F099
:10045000FDFA0021402000F0F9FA16E0B34884428A
:1004600008D10121802000F0F1FA0021802000F065
:10047000EDFA0AE0AE48844207D10121801500F070
:10048000E5FA0021A01500F0E1FA10BD10B5012138
:10049000084600F0DBFA0021012000F0D7FA10BD79
:1004A0002DE9F0410246002500260020002300240B
:1004B000002791F803C00CF00F0591F803C00CF071
:1004C000100CBCF1000F03D091F802C04CEA0505F6
:1004D00091F800C0BCF1000F31D0146800202BE06F
:1004E0004FF0010C0CFA00F3B1F800C00CEA03065F
:1004F0009E4220D183004FF00F0C0CFA03F7BC434F
:1005000005FA03FC4CEA040491F803C0BCF1280F7F
:1005100006D14FF0010C0CFA00FCC2F814C00AE03E
:1005200091F803C0BCF1480F05D14FF0010C0CFA53
:1005300000FCC2F810C0401C0828D1D31460B1F8E8
:1005400000C0BCF1FF0F34DD546800202EE000F144
:10055000080C4FF0010808FA0CF3B1F800C00CEADF
:1005600003069E4221D183004FF00F0C0CFA03F7D3
:10057000BC4305FA03FC4CEA040491F803C0BCF147
:10058000280F05D100F1080C08FA0CF8C2F8148005
:1005900091F803C0BCF1480F07D100F1080C4FF0EF
:1005A000010808FA0CF8C2F81080401C0828CED3C5
:1005B0005460BDE8F0814FF6FF7101800221817027
:1005C0000421C17070470246002093680B400BB1B4
:1005D000012000E0002070470146886880B2704723
:1005E00002460020D3680B400BB1012000E0002040
:1005F00070470146C86880B2704701617047416129
:1006000070470AB1016100E041617047C160704705
:100610004FF480320A43826181618261826982691A
:10062000704702460020434B18684FF6807318400D
:1006300040EA021008433F4B186070473E49C861CA
:100640007047F0B50A46002300240021002500F081
:100650000046B6F1004F02D1364EF16901E0354E49
:100660007168C0F3034583B200F44016B6F5401F2D
:1006700008D121F070612F4E766826F070662D4FFC
:100680007E6012E000F48016B6F5801F06D10326C6
:1006900006FA05F4A14341F0706106E0460D36010B
:1006A00003FA06F6B14341F0706122B1460D3601FE
:1006B00003FA06F6314300F00046B6F1004F02D1CE
:1006C0001C4EF16101E01B4E7160F0BD30B500229F
:1006D0008B071C0F0F2303FA04F2164B08338C1000
:1006E00053F824309343134C08348D1044F82530CC
:1006F00023468C1053F824308C07240F00FA04F49E
:1007000023430C4C08348D1044F8253030BD0A4981
:10071000DC3108607047000000080140000C014017
:10072000001001400014014000180140001C01406D
:10073000002001400000014000002042DF48006826
:1007400040F00100DD49086008464068DC49084087
:10075000DA49486008460068DA490840D749086025
:100760000846006820F4802008600846406820F4AD
:10077000FE0048604FF41F0088607047CF49096849
:1007800021F48031CD4A11601146096821F480219D
:100790001160B0F5803F03D0B0F5802F0ED106E098
:1007A000C649096841F48031C44A116007E0C34971
:1007B000096841F4A021C14A116000E000BF00BFF8
:1007C000704710B501460022002300204A11012A7B
:1007D00002D1BA4C236806E0022A02D1B74C236A40
:1007E00001E0B64C636A01F01F02012494401C40F2
:1007F0000CB1012000E0002010BD38B500200090B1
:100800000024002500BF3120FFF7DBFF05460098DC
:10081000401C00900098B0F5A06F01D0002DF2D0E0
:100820003120FFF7CEFF08B1012400E0002420466C
:1008300038BD01460020A14A106820F0F80040EAC7
:10084000C10010607047A049086070470246002050
:100850009A4B586820F47C1042EA01031843974BE6
:100860005860704798490866704701460020934ACF
:10087000506820F003000843506070478F4840687C
:1008800000F00C007047014600208C4A506820F0B0
:10089000F00008435060704701460020874A5068C6
:1008A00020F4E06008435060704701460020834A0E
:1008B000506820F4605040EAC1005060704729B190
:1008C0007E4A527A02437D4B5A7204E07B4A527A46
:1008D00082437A4B5A7270477B49D831086070471F
:1008E00001460020754A506820F44040084350609B
:1008F00070470021714A20321170704A82F820102E
:10090000012802D004280AD104E001216B4A2032D8
:10091000117005E00521694A2032117000E000BF26
:1009200000BF70476949086070476449096A01431C
:10093000624A11627047654944390860704730B5B2
:1009400000210022002400235C4D6D6805F00C019D
:1009500021B1042905D0082923D105E05C4D0560AB
:1009600022E05B4D05601FE0544D6D6805F4701288
:10097000524D6D6805F48034022505EB92421CB996
:10098000544D554305600BE04C4D6D6805F4003542
:100990001DB1504D5543056002E04D4D5543056076
:1009A00002E04B4D056000BF00BF444D6D6805F08F
:1009B000F0010909484D6B5C0568DD4045603F4D1D
:1009C0006D6805F4E061090A434D6B5C4568DD40E4
:1009D00085603A4D6D6805F46051C90A3E4D6B5C07
:1009E0004568DD40C560354D6D6805F44041890BB3
:1009F0003A4D6B5CC568B5FBF3F5056130BD29B1B7
:100A00002E4A526902432D4B5A6104E02B4A526927
:100A100082432A4B5A61704729B1284A926902439E
:100A2000264B9A6104E0254A92698243234B9A61DE
:100A3000704729B1214AD2690243204BDA6104E0B0
:100A40001E4AD26982431D4BDA61704729B11B4AA5
:100A5000D2680243194BDA6004E0184AD268824334
:100A6000164BDA60704729B1144A12690243134BDE
:100A70001A6104E0114A12698243104B1A617047EF
:100A800012494039086070470F49C86470470B49E4
:100A9000C87170470948406A40F080700749486251
:100AA000704701460020054A92680A400AB10120B9
:100AB00000E0002070470149887270470010024032
:100AC0000000FFF8FFFFF6FE0000424280044242B1
:100AD00000127A0000093D001400002024000020CC
:100AE00010B50446FE48844208D10121C014FFF726
:100AF000ADFF0021E014FFF7A9FFC4E0B4F1804F7F
:100B000008D101210846FFF7AEFF00210120FFF7C1
:100B1000AAFFB8E0F348844208D101210220FFF780
:100B2000A2FF00210220FFF79EFFACE0EE488442C6
:100B300008D101210420FFF796FF00210420FFF7D0
:100B400092FFA0E0E948844208D101210820FFF784
:100B50008AFF00210820FFF786FF94E0E4488442E2
:100B600008D101211020FFF77EFF00211020FFF7A0
:100B70007AFF88E0DF48844208D101212020FFF776
:100B800072FF00212020FFF76EFF7CE0DA488442EC
:100B900008D101214014FFF759FF00216014FFF72D
:100BA00055FF70E0D548844209D10121C804FFF700
:100BB0004DFF00214FF40020FFF748FF63E0D048CD
:100BC000844209D101210805FFF740FF00214FF4BD
:100BD0008010FFF73BFF56E0CA48844209D101214B
:100BE0004805FFF733FF00214FF40010FFF72EFFF9
:100BF00049E0C548844208D101214020FFF733FF76
:100C000000214020FFF72FFF3DE0C048844208D17B
:100C100001218020FFF727FF00218020FFF723FF1D
:100C200031E0BB48844208D101218015FFF71BFF4A
:100C30000021A015FFF717FF25E0B648844209D12F
:100C400001210804FFF702FF00214FF48030FFF775
:100C5000FDFE18E0B048844209D101214804FFF7A5
:100C6000F5FE00214FF40030FFF7F0FE0BE0AB483B
:100C7000844208D101218804FFF7E8FE00214FF4E7
:100C80008020FFF7E3FE10BD00220288944B9842BB
:100C90000ED0994B98420BD0B0F1804F08D0914BB9
:100CA000984205D0904B984202D0904B984204D184
:100CB0004FF68F731A404B881A438D4B984207D0DA
:100CC0008C4B984204D04FF6FF431A40CB881A430E
:100CD00002808B8883850B880385814B98420BD0DB
:100CE000854B984208D08B4B984205D08A4B98424E
:100CF00002D08A4B984201D10B7A0386012383826A
:100D0000704770B5002400220023058C4FF6FE7654
:100D100035400584028C8388048B4FF68F752C40F8
:100D2000B51E2C400D882C43751E2A400D892A4380
:100D30004D882A436A4DA8420BD06F4DA84208D077
:100D4000744DA84205D0744DA84202D0734DA842FC
:100D500013D14FF6F7752A404D892A434FF6FB759C
:100D60002A408D882A434FF6FF652B404FF6FF55EA
:100D70002B408D892B43CD892B4383800483CD88E1
:100D80008586028470BD70B5002400220023058C86
:100D90004FF6EF7635400584028C8388048B48F645
:100DA000FF752C404FF6FF452C400D884FF6FF761F
:100DB00006EA05252C434FF6DF752A400D8906EA21
:100DC00005152A434D8806EA05152A43444DA842D5
:100DD00002D0494DA8421DD14FF67F752A404D895A
:100DE0004FF6FF7606EA05152A434FF6BF752A40EF
:100DF0008D8806EA05152A434FF6FF352B404FF242
:100E0000FF752B408D8906EA85052B43CD8906EABF
:100E100085052B4383800483CD880587028470BDBC
:100E200070B5002400220023058C4FF6FF66354084
:100E30000584028C8388848B4FF68F752C404FF687
:100E4000FC752C400D882C434FF6FF552A400D8928
:100E50004FF6FF7606EA05252A434D8806EA052562
:100E60002A431F4DA84202D0234DA8421DD14FF264
:100E7000FF752A404D894FF6FF7606EA05252A437D
:100E80004FF6FF352A408D8806EA05252A434EF69F
:100E9000FF752B404DF6FF752B408D8906EA051531
:100EA0002B43CD8906EA05152B4383808483CD88A7
:100EB0008587028470BD70B5002200230024058C54
:100EC0004EF6FF7635400584038C8488828B48F685
:100ED000FF752A404FF6FF452A400D8820E00000AC
:100EE000002C01400004004000080040000C0040BD
:100EF000001000400014004000340140004C01404C
:100F0000005001400054014000180040001C004007
:100F100000200040004001400044014000480140E2
:100F20004FF6FF7606EA05252A434DF6FF752B405E
:100F30000D8906EA05352B434D8806EA05352B4316
:100F4000FA4DA84202D0FA4DA84208D14BF6FF75DF
:100F50002C408D894FF6FF7606EA85152C43848058
:100F60008283CD88A0F84050038470BD828B4FF2FD
:100F7000FF331A408283828B4FF6FF7303EA01230B
:100F80001A4382837047F0B50C46154600220021B3
:100F90000026078C4EF6FF7C07EA0C070784828B3D
:100FA000018C4FF6FF7707EA043640F6FF473A40D8
:100FB0004FF6FF7707EA05273A434FF6FF7707EA30
:100FC00003373A43D94FB8420ED0D94FB8420BD06D
:100FD000B0F1804F08D0D74FB84205D0D64FB842B5
:100FE00002D0D64FB84206D14DF6FF77394046F4CD
:100FF0008057394305E047F6FF57394044F480579E
:10100000394382830184F0BD828B4FF6F3731A401B
:101010008283828B0A4382837047F0B50C46154663
:10102000002200210026078C4FF6FF6C07EA0C0710
:101030000784828B018C4FF6FF7707EA04264FF670
:101040000C773A404FF6FF7707EA03172F433A43EE
:10105000B64FB8420ED0B64FB8420BD0B0F1804F69
:1010600008D0B44FB84205D0B34FB84202D0B34F06
:10107000B84206D14FF6FF57394046F480773943DE
:1010800005E04FF2FF57394044F4807739438283BB
:101090000184F0BD028B4FF2FF331A400283028BB2
:1010A0004FF6FF7303EA01231A4302837047F0B53A
:1010B0000C461546002200210026078C4FF6EF7CD7
:1010C00007EA0C070784028B018C4FF6FF7707EACB
:1010D000041640F6FF473A404FF6FF7707EA03371A
:1010E0003A434FF6FF7707EA05273A438F4FB84256
:1010F0000ED08F4FB8420BD0B0F1804F08D08D4F3B
:10110000B84205D08C4FB84202D08C4FB84206D1BD
:101110004FF6DF77394046F01007394305E04FF6C8
:101120005F77394044F01007394302830184F0BDF2
:10113000028B4FF6F3731A400283028B0A43028339
:101140007047F0B50C46154600220021068C4FF67C
:10115000FE773E400684028B018C4FF60C763240BF
:101160007E1C06EA03162E433243704EB0420ED068
:101170006F4EB0420BD0B0F1804F08D06D4EB042F0
:1011800005D06D4EB04202D06C4EB04206D14FF643
:10119000FD76314044F00106314305E04FF6F57627
:1011A000314044F00106314302830184F0BD70B543
:1011B00005460C465D4885420ED05D4885420BD001
:1011C000B5F1804F08D05B48854205D05A4885422A
:1011D00002D05A48854200D100E000BF208850B9B3
:1011E0002389A28861882846FFF7ABFFE18828465B
:1011F000FFF79EFF25E0208804280AD12389A288D2
:1012000061882846FFF753FFE1882846FFF742FF31
:1012100017E0208808280AD12389A28861882846F7
:10122000FFF7FBFEE1882846FFF7EEFE09E0238981
:10123000A28861882846FFF7A6FEE1882846FFF7C6
:1012400095FE70BD2DE9F04105460C4600260127AC
:10125000608808B9022600E00026A088012801D194
:10126000022700E001272088A0B92389A28861888D
:101270002846FFF766FFE1882846FFF759FF2389D4
:101280003A4631462846FFF712FFE1882846FFF725
:1012900001FF13E02389A28861882846FFF707FF32
:1012A000E1882846FFF7F6FE23893A46314628466C
:1012B000FFF747FFE1882846FFF73AFFBDE8F081D6
:1012C0000A884B881A438B881A43CB881A430B89A8
:1012D0001A434B891A438B891A43A0F8442070475C
:1012E0004FF6FF71818000210180C1804180017231
:1012F00070470021018041808180C180018141814E
:101300008181C1817047002101804180012181805C
:101310000021C180018170470021018041808180CE
:10132000C18001814181818170470000002C014012
:10133000003401400004004000080040000C004060
:1013400021B1028842F00102028004E002884FF6D7
:10135000FE731A400280704731B1B0F8442042F465
:101360000042A0F8442005E0B0F84420C2F30E0289
:10137000A0F8442070471AB183890B43838102E0AF
:1013800083898B43838170478182704741EA0203DE
:10139000A0F8483070471AB183890B43838102E07B
:1013A00083898B438381704701894FF6F87211401E
:1013B000018170470A46002101894FF68F73194059
:1013C00011430181704730B504460D462946204639
:1013D000FFF7F0FF208940F00700208130BD2DE9A4
:1013E000F04104460D4616461F46602D06D13B4689
:1013F000012231462046FFF75AFE05E03B46012216
:1014000031462046FFF79DFE29462046FFF7D2FFD2
:10141000208940F007002081BDE8F08130B50C46FE
:1014200000210189C9B24FF6FF7505EA032515436E
:1014300025432943018130BD2DE9F04105460E4683
:1014400017469846002443463A4631462846FFF759
:10145000E5FF2C894FF6F870044044F007044FF67E
:101460008F70044044F070042C81BDE8F081F0B529
:1014700004460D4616461F463B4632462946204640
:10148000FFF7CCFF208940F480402081F0BD01852A
:10149000828270470A46002101884FF68F731940F7
:1014A000114301807047F0B50C4615461E460021D9
:1014B000002200230189028B038C4FF6F877394014
:1014C00021434FF6FC473A4040F201173A434FF6AA
:1014D000DD773B404FF6FF7707EA06172F433B4384
:1014E000018102830384F0BD0A460021018B4FF67F
:1014F0008F7319401143018370470A460021018B05
:1015000048F6FF7319404FF6FF7303EA02231943AD
:10151000018370470A460021818B4FF68F73194073
:101520001143818370470A460021818B48F6FF737F
:1015300019404FF6FF7303EA022319438183704772
:1015400021B1028842F08002028004E002884FF656
:101550007F731A400280704721B1828842F00402F2
:10156000828004E082884FF6FB731A4082807047C5
:1015700021B1828842F00802828004E082884FF61E
:10158000F7731A408280704721B1828842F00102CD
:10159000828004E082884FF6FE731A408280704792
:1015A0000A460021018B4FF6F7731940114301835E
:1015B00070470A460021018B4FF2FF7319404FF626
:1015C000FF7303EA02231943018370470A4600218F
:1015D000818B4FF6F77319401143818370470A4698
:1015E0000021818B4FF2FF7319404FF6FF7303EA1E
:1015F00002231943818370470A460021018B4FF66D
:10160000FB7319401143018370470A460021018B87
:101610004FF6FF3319404FF6FF7303EA02231943D5
:10162000018370470A460021818B4FF6FB731940F6
:101630001143818370470A460021818B4FF6FF33A7
:1016400019404FF6FF7303EA022319438183704761
:101650000A460021018B4FF67F7319401143018325
:1016600070470A460021018BC1F30E014FF6FF734C
:1016700003EA02231943018370470A460021818B44
:101680004FF67F7319401143818370470A4600214A
:10169000818BC1F30E014FF6FF7303EA0223194356
:1016A000818370470A460021018C4FF6FD73194073
:1016B0001143018470470A460021018C4FF6F773ED
:1016C00019401143018470470A460021018C4FF6EE
:1016D000DF7319404FF6FF7303EA021319430184C5
:1016E00070470A460021018C4FF67F7319404FF670
:1016F000FF7303EA02131943018470470A4600216D
:10170000018C4FF6FF5319404FF6FF7303EA022393
:101710001943018470470A460021018C4FF2FF7380
:1017200019404FF6FF7303EA0223194301847047FF
:101730000A460021018C4DF6FF7319404FF6FF73E6
:1017400003EA023319430184704730B500230124B2
:101750008C40A3B2048C9C430484048C02FA01F5EF
:10176000ADB22C43048430BD30B5002304248C403A
:10177000A3B2048C9C430484048C02FA01F5ADB23C
:101780002C43048430BD70B5034600200024184665
:10179000183001258D40ACB21D8CA5431D8409B1C4
:1017A000082909D100EB6100056825F07005056086
:1017B0000568154305600EE00D1FC5F34E0528446E
:1017C000056825F4E045056005684FF6FF7606EAF2
:1017D00002263543056070BD21B1028842F0020245
:1017E000028004E002884FF6FD731A4002807047C1
:1017F00021B1028842F00402028004E002884FF620
:10180000FB731A400280704721B1828842F0800247
:10181000828004E082884FF67F731A40828070478E
:1018200002884FF6F7731A40028002880A4302804A
:10183000704782884FF68F731A40828082880A43ED
:101840008280704702894FF6F8731A40028102893C
:101850000A430281704702894FF67F731A40028162
:1018600002890A43028170478184704781857047ED
:10187000818670470187704781877047A0F84010C4
:10188000704702884FF6FF431A40028002880A43DD
:10189000028070470146888E70470146088F704766
:1018A0000146888F70470146B1F8400070470146F5
:1018B000888C70470146088D704702460020138AC5
:1018C0000B400BB1012000E000207047CA430282A8
:1018D000704730B50246002000230024158A05EA2F
:1018E0000103958905EA010413B10CB1012000E060
:1018F000002030BDCA4302827047000010B54FF48B
:1019000080516748FEF75FFEE8B94FF40061644814
:10191000FEF759FEB8B963480068A0B9022000F08C
:10192000ACFB4FF480515E48FEF74DFE58B94FF4C2
:1019300000615B48FEF747FE28B95A48006810B9B5
:101940000120584908600A2000F097FB4FF48051AD
:101950005348FEF738FE01280ED1C1025048FEF769
:1019600032FE012808D14F480068012804D1002028
:101970004C490860012010BD0020FCE70024012034
:101980004949086000F044F900F03AFB00F002FA1F
:1019900000F034FC00F09EFB00F01AFC00F0FAFBB3
:1019A00044F6F4431A4644F26E11084600F061FA18
:1019B00075E0FFF7A3FF012800D1641C3A480068D6
:1019C000C01CA04204D10020384900F0D0FA641CA9
:1019D00035480068801DA04261D10020344900F0E4
:1019E00090FA44F6F4431A4644F26E11084600F0A9
:1019F00040FAC82000F041FB00231A461946184659
:101A000000F037FA6FF03B0000F077FB4FF47A708C
:101A100000F033FB274B1A462749084600F029FA05
:101A20004FF4487000F029FB00231A461946184667
:101A300000F01FFA4FF4FA7000F01FFB322000F0A4
:101A40005CFB00201D4900F05CFA1A4B1A461A494B
:101A5000084600F00EFA4FF4487000F00EFB00202C
:101A6000174900F084FA4FF4487000F006FB44F682
:101A7000F4431A4644F26E11084600F0FAF94FF4A6
:101A80007A7000F0FAFA4FF4966000F0F6FA05E08A
:101A900000231A461946184600F0EBF9F8E788E7E4
:101AA00000080140280000202C00002000C0594000
:101AB00000004A400CB3FFFF92BEFFFF0000494008
:101AC00000C05240704700BFFEE700BFFEE700BF06
:101AD000FEE700BFFEE7704770477047704710B5DC
:101AE0000BE044F638231A4641F28831084600F0EC
:101AF000C0F94FF47A7000F0C0FA4FF480614048AA
:101B0000FEF761FD0028ECD000231A46194618465E
:101B100000F0AFF9122000F0F0FA40F6B83000F013
:101B2000ACFA00F097FB41F2883000F0A6FA00F022
:101B300091FB41F2883000F0A0FA324B1A46194668
:101B4000184600F096F941F2883000F096FA00202D
:101B50002D4900F00CFA44F638231A461946184667
:101B600000F087F94FF4FA6000F087FA10BD10B565
:101B70000BE044F638231A4641F28831084600F05B
:101B800078F94FF47A7000F078FA4FF480611C48CD
:101B9000FEF719FD0028ECD000231A461946184616
:101BA00000F067F9122000F0A8FA40F6B83000F013
:101BB00064FA00F04FFB41F2883000F05EFA00F06A
:101BC00049FB41F2883000F058FA0E4B1A4619468C
:101BD000184600F04EF941F2883000F04EFA00202D
:101BE0000A4900F0C4F944F638231A461946184643
:101BF00000F03FF94FF4FA6000F03FFA10BD00002A
:101C000000080140C8B5FFFF0080464000E060408A
:101C100008B501210C20FEF7FFFE01210820FEF788
:101C2000FBFE03208DF8020010208DF803008001D8
:101C3000ADF800006946E948FEF732FC4FF4006059
:101C4000ADF800006946E548FEF72AFC4FF48070C5
:101C5000ADF800006946E248FEF722FC2020ADF80E
:101C600000006946DE48FEF71BFC4FF48050ADF8DB
:101C700000006946D948FEF713FC4FF40050ADF858
:101C800000006946D548FEF70BFC4FF48040ADF8E4
:101C900000006946D148FEF703FC4FF40040ADF860
:101CA00000006946CD48FEF7FBFB08BD08B50121E1
:101CB0000D20FEF7B1FE18208DF8030003208DF8EB
:101CC00002004020ADF800006946C548FEF7E8FB79
:101CD0008020ADF800006946C148FEF7E1FB012015
:101CE000ADF800006946BD48FEF7DAFB0220ADF80A
:101CF00000006946B948FEF7D3FB08BD00B587B0C0
:101D000001210220FEF795FE44F61F60ADF8140095
:101D10008F20ADF810000020ADF81600ADF81200CD
:101D200004A9B048FEF7B0FF7020ADF80000012014
:101D3000ADF802000020ADF806000220ADF8080062
:101D40006946A848FEF7DDFF0821A648FFF728FCF2
:101D50006946A448FFF717F80821A248FFF729FCB5
:101D60006946A048FFF75CF808219E48FFF72EFC63
:101D700069469C48FFF79FF808219A48FFF72FFC17
:101D800001219848FFF7DCFB01219648FFF7D8FABC
:101D900007B000BD10B5FFF789FFFFF7AFFF10BD1B
:101DA00030B5904D343528802D1D29802D1D2A8079
:101DB0002D1D2B8030BD10B54FF480418748FEF7B4
:101DC0001EFC4FF400418548FEF717FC10BD10B50E
:101DD0004FF480418148FEF710FC4FF400417F48EA
:101DE000FEF70DFC10BD10B54FF480517B48FEF797
:101DF00004FC4FF400517948FEF701FC10BD10B50A
:101E00004FF480517548FEF7FAFB4FF400517348C8
:101E1000FEF7F3FB10BD10B54FF480717048FEF76C
:101E2000EEFB20216E48FEF7E8FB10BD10B54FF425
:101E300080716B48FEF7E1FB20216948FEF7DFFB6C
:101E400010BD10B54FF480616448FEF7D8FB4FF425
:101E500000616248FEF7D1FB10BD10B54FF4806100
:101E60005E48FEF7CAFB4FF400615C48FEF7C7FB13
:101E700010BD2DE9F04107460C4615461E46002FC1
:101E800003DAFFF7EAFF7F4201E0FFF7DAFF002CF9
:101E900003DAFFF7CBFF644201E0FFF7BCFF002D40
:101EA00003DAFFF7ACFF6D4201E0FFF79CFF002E65
:101EB00003DAFFF78CFF764201E0FFF77CFF334641
:101EC0002A4621463846FFF76BFFBDE8F08110B582
:101ED00044F6BC531A4644F26E110846FFF7C9FF98
:101EE00010BD10B5404B1A4640490846FFF7C1FFE8
:101EF00010BD10B500231A4619461846FFF7B9FF62
:101F000010BD2DE9F04704460D46322000F0B5F82B
:101F1000FFF7E7FF322000F0B0F8FFF7EAFFFA2002
:101F200000F0ABF8324A334B2046294600F001FB63
:101F30000646314A314B00F055FA80468946404604
:101F4000494600F079FB824644F6F4431A46274995
:101F50000846FFF78EFF1FFA8AF000F08EF8FFF7B1
:101F6000B6FF4FF4C87000F088F8BDE8F0872DE99F
:101F7000F04704460D46322000F07FF8FFF7B1FF2E
:101F8000322000F07AF8FFF7B4FFFA2000F075F87D
:101F9000174A184B2046294600F0CBFA0646164A47
:101FA000164B00F01FFA804689464046494600F02D
:101FB00043FB82460C4BC8331A4644F26E11084666
:101FC000FFF757FF1FFA8AF000F057F8FFF77FFF7F
:101FD0004FF4C87000F051F8BDE8F087000C0140E4
:101FE000000801400004004044B2FFFF92BEFFFF22
:101FF000E09C11A5BD41194021B0726891ED3F40B0
:1020000010B56FF00400FEF7CCF92E4800682E4999
:10201000B0FBF1F02D4908700846007800EB400154
:10202000C1EBC0104FF6FF7101EAC00028490880DB
:1020300010BD0146254A12784A434FF0E0235A6109
:1020400000229A611A46126942F001021A6100BF29
:102050004FF0E022106900F001021AB100F4803262
:10206000002AF5D04FF0E022126922F001024FF071
:10207000E0231A6100229A6170470146144A1288CF
:102080004A434FF0E0235A6100229A611A461269CE
:1020900042F001021A6100BF4FF0E022106900F027
:1020A00001021AB100F48032002AF5D04FF0E0228C
:1020B000126922F001024FF0E0231A6100229A61B6
:1020C000704700000000002000127A00300000205D
:1020D0003200002008B501210920FEF79DFC4020B8
:1020E000ADF8000018208DF8030003208DF80200E1
:1020F00069462448FEF7D4F908BD2DE9F04188B0BF
:102100000446204600F087FA05461F4A1F4B00F0A0
:1021100010FA074600F090FA044604F57A7401219B
:102120000420FEF786FC44F61F60ADF818008F20EF
:10213000ADF814000020ADF81A00ADF8160005A99E
:102140001348FEF7A1FD7020ADF804000120ADF8A2
:102150000600A0B2ADF80A000220ADF80C0001A9FB
:102160000B48FEF7CEFD08210948FFF719FA0121B7
:102170000748FFF7E5F901210548FFF7E1F808B046
:10218000BDE8F081000C01403D0AD7A3703D164028
:102190000008004008B501210820FEF73DFC03209F
:1021A0008DF8020004208DF803004002ADF8000015
:1021B00069460648FEF774F94FF48050ADF8000008
:1021C00069460248FEF76CF908BD000000080140AE
:1021D00008B501210420FEF71FFC03208DF8020042
:1021E0004FF48060ADF8000004208DF803006946CC
:1021F0000148FEF755F908BD0008014008B5012166
:102200000C20FEF709FC01210846FEF705FC03201F
:102210008DF8020010208DF803004001ADF8000099
:1022200069466E48FEF73CF92020ADF8000069468B
:102230006B48FEF735F91020ADF800006946674895
:10224000FEF72EF90420ADF8000069466348FEF75A
:1022500027F908BD10B5002450E04FF400715F4825
:10226000FEF7CBF920215E48FEF7C9F910215B4843
:10227000FEF7C5F904215948FEF7C1F90220FFF71E
:10228000FCFE20215648FEF7B8F94FF40071534880
:10229000FEF7B5F910215148FEF7B1F904214F4876
:1022A000FEF7ADF90220FFF7E8FE10214B48FEF7DC
:1022B000A4F94FF400714948FEF7A1F920214848DC
:1022C000FEF79DF904214548FEF799F90220FFF732
:1022D000D4FE04214148FEF790F94FF400713F48C5
:1022E000FEF78DF920213E48FEF789F910213B4881
:1022F000FEF785F90220FFF7C0FE641CB4F57A7F73
:10230000ABDB10BD10B5002450E004213348FEF7CC
:1023100074F94FF400713148FEF771F9202130480B
:10232000FEF76DF910212D48FEF769F90220FFF73D
:10233000A4FE10212948FEF760F94FF400712748E8
:10234000FEF75DF920212648FEF759F904212348BC
:10235000FEF755F90220FFF790FE20212048FEF7F6
:102360004CF94FF400711D48FEF749F910211B4844
:10237000FEF745F904211948FEF741F90220FFF75D
:102380007CFE4FF400711548FEF737F92021144800
:10239000FEF735F910211148FEF731F904210F48F5
:1023A000FEF72DF90220FFF768FE641CB4F57A7F72
:1023B000ABDB10BD10E004210848FEF720F94FF414
:1023C00000710648FEF71BF920210548FEF717F9B2
:1023D00010210248FEF713F9EDE700000008014064
:1023E000000C01402DE9FE4F804681EA0300C00F3A
:1023F0000C46009021F0004123F00045B8EB0200AC
:10240000A94105D24046214690461C460B4602464D
:1024100023F00040104347D0270DC7F30A00C3F351
:102420000A510290401A019040286BDAC3F313005E
:1024300040F4801B0098924620B10023D2EB030A9F
:1024400063EB0B0B01985946C0F14002504600F077
:1024500012F906460D4650465946019A00F02AF9EF
:1024600010EB08006141002487EA115284EAE77307
:102470001A4340D0009A62B3019A012A4FEA0752E8
:1024800015DC001B61EB02014FF0004202EA07522B
:10249000CDE90042001C41F5801132462B4600F088
:1024A0002AF903B0BDE8F08F40462146F9E7001B4A
:1024B00061EB0201001C41F5801300185B412018FC
:1024C000A2F5001747EB030140EAD570B6196D413C
:1024D00011E06D084FEA360645EAC0754FEA07522B
:1024E000001B61EB0201001C41F5801149084FEA15
:1024F00030000019514132462B4603B0BDE8F04F81
:1025000000F0EAB80098012240000023D0EB02025C
:1025100063EBE073009821464FEAE074B8EB0000EB
:1025200061EB0401E9E783F000435BE781F00041E0
:1025300058E72DE9FE4F81EA030404F0004421F03E
:10254000004100944FF0000B23F0004350EA0104D7
:102550005ED052EA03045BD0C3F30A54C1F30A55B8
:102560002C44A4F2F3340194A0FB0254C1F31301F0
:1025700041F48011C3F3130343F4801301FB0244BD
:1025800000FB034E840A970A44EA815447EA8357C2
:10259000A4FB076802958D0A05FB07854FEA932C7B
:1025A00004FB0C542705029D4FEA065847EA1637EC
:1025B000B5EB08056EEB070C870E920E47EA811704
:1025C00042EA8312A7FB0201B6EB0B0164EB0004A5
:1025D0002B0D43EA0C335E1844EB1C50DA4651468F
:1025E000E7FB0201C5F313044FEA0B3343EA14532C
:1025F0004FEA0432019C43EA0603A4F10C0402945E
:10260000009CCDE900B400F076F803B0BDE8F08F8F
:1026100000200146F9E70EB5C10F80EAE0700844DA
:10262000CA07002140F233438DE80E000A460B46EC
:1026300000F061F803B000BD70B5C1F30A5201F0BB
:1026400000450024C1F3130140F2FF3341F480112F
:102650009A4201DA002070BD40F233439A42A2F25E
:10266000334203DC524200F015F800E090402C4366
:10267000F1D0404270BD202A04DB203A00FA02F17A
:10268000002070479140C2F1200320FA03F3194360
:1026900090407047202A04DB203A21FA02F0002102
:1026A000704721FA02F3D040C2F120029140084362
:1026B00019467047202A06DBCB17203A41FA02F070
:1026C00043EAE07306E041FA02F3D040C2F120028F
:1026D000914008431946704710B5141E73F1000469
:1026E00008DA401C41F1000192185B411A4301D104
:1026F00020F0010010BD2DE9F04D92469B4611B12E
:10270000B1FA81F202E0B0FA80F220329046FFF78F
:10271000B2FF04460F4640EA0A0041EA0B01534665
:102720005A46084313D0114653EA010019D0C8F1A4
:1027300040025046FFF7AEFF05460E46504659464A
:102740004246FFF798FF084305D0012004E02046E9
:102750003946BDE8F08D0020054346EAE0762C437B
:1027600037430A986305E40AA0EB08000022FD0A3B
:1027700044EA47540A3002D500200146E9E7010542
:1027800010196941DDE9084500196941BDE8F04DBE
:10279000A2E70000064C074D06E0E06840F00103A8
:1027A00094E8070098471034AC42F6D3FDF7A2FC3A
:1027B000D8270008F827000802E008C8121F08C13F
:1027C000002AFAD170477047002001E001C1121FB2
:1027D000002AFBD170470000F82700080000002005
:1027E00034000000B82700082C280008340000201E
:1027F00004040000C827000800A24A0400000000EA
:1028000000000000010203040607080900000000A0
:102810000102030401020304060708090204060872
:0C282000000000000000000000000000AC
:04000005080000ED02
:00000001FF
